{
  "contractName": "SocialNetwork",
  "abi": [
    {
      "inputs": [],
      "payable": false,
      "stateMutability": "nonpayable",
      "type": "constructor"
    },
    {
      "anonymous": false,
      "inputs": [
        {
          "indexed": false,
          "internalType": "uint256",
          "name": "id",
          "type": "uint256"
        },
        {
          "indexed": false,
          "internalType": "string",
          "name": "content",
          "type": "string"
        },
        {
          "indexed": false,
          "internalType": "uint256",
          "name": "tipAmount",
          "type": "uint256"
        },
        {
          "indexed": false,
          "internalType": "address payable",
          "name": "author",
          "type": "address"
        }
      ],
      "name": "PostCreated",
      "type": "event"
    },
    {
      "anonymous": false,
      "inputs": [
        {
          "indexed": false,
          "internalType": "uint256",
          "name": "id",
          "type": "uint256"
        },
        {
          "indexed": false,
          "internalType": "string",
          "name": "content",
          "type": "string"
        },
        {
          "indexed": false,
          "internalType": "uint256",
          "name": "tipAmount",
          "type": "uint256"
        },
        {
          "indexed": false,
          "internalType": "address payable",
          "name": "author",
          "type": "address"
        }
      ],
      "name": "PostTipped",
      "type": "event"
    },
    {
      "constant": true,
      "inputs": [],
      "name": "name",
      "outputs": [
        {
          "internalType": "string",
          "name": "",
          "type": "string"
        }
      ],
      "payable": false,
      "stateMutability": "view",
      "type": "function"
    },
    {
      "constant": true,
      "inputs": [],
      "name": "postCount",
      "outputs": [
        {
          "internalType": "uint256",
          "name": "",
          "type": "uint256"
        }
      ],
      "payable": false,
      "stateMutability": "view",
      "type": "function"
    },
    {
      "constant": true,
      "inputs": [
        {
          "internalType": "uint256",
          "name": "",
          "type": "uint256"
        }
      ],
      "name": "posts",
      "outputs": [
        {
          "internalType": "uint256",
          "name": "id",
          "type": "uint256"
        },
        {
          "internalType": "string",
          "name": "content",
          "type": "string"
        },
        {
          "internalType": "uint256",
          "name": "tipAmount",
          "type": "uint256"
        },
        {
          "internalType": "address payable",
          "name": "author",
          "type": "address"
        }
      ],
      "payable": false,
      "stateMutability": "view",
      "type": "function"
    },
    {
      "constant": false,
      "inputs": [
        {
          "internalType": "string",
          "name": "_content",
          "type": "string"
        }
      ],
      "name": "createPost",
      "outputs": [],
      "payable": false,
      "stateMutability": "nonpayable",
      "type": "function"
    },
    {
      "constant": false,
      "inputs": [
        {
          "internalType": "uint256",
          "name": "_id",
          "type": "uint256"
        }
      ],
      "name": "tipPost",
      "outputs": [],
      "payable": true,
      "stateMutability": "payable",
      "type": "function"
    }
  ],
  "bytecode": "0x6080604052600060015534801561001557600080fd5b506040518060400160405280601981526020017f5370616365204578706c6f726174696f6e20697320424553540000000000000081525060009080519060200190610061929190610067565b5061010c565b828054600181600116156101000203166002900490600052602060002090601f016020900481019282601f106100a857805160ff19168380011785556100d6565b828001600101855582156100d6579182015b828111156100d55782518255916020019190600101906100ba565b5b5090506100e391906100e7565b5090565b61010991905b808211156101055760008160009055506001016100ed565b5090565b90565b610a968061011b6000396000f3fe60806040526004361061004a5760003560e01c806306fdde031461004f5780630b1e7f83146100df57806317906c2e146101d457806374d3c1f8146101ff578063c7303c611461022d575b600080fd5b34801561005b57600080fd5b506100646102f5565b6040518080602001828103825283818151815260200191508051906020019080838360005b838110156100a4578082015181840152602081019050610089565b50505050905090810190601f1680156100d15780820380516001836020036101000a031916815260200191505b509250505060405180910390f35b3480156100eb57600080fd5b506101186004803603602081101561010257600080fd5b8101908080359060200190929190505050610393565b60405180858152602001806020018481526020018373ffffffffffffffffffffffffffffffffffffffff1673ffffffffffffffffffffffffffffffffffffffff168152602001828103825285818151815260200191508051906020019080838360005b8381101561019657808201518184015260208101905061017b565b50505050905090810190601f1680156101c35780820380516001836020036101000a031916815260200191505b509550505050505060405180910390f35b3480156101e057600080fd5b506101e961047b565b6040518082815260200191505060405180910390f35b61022b6004803603602081101561021557600080fd5b8101908080359060200190929190505050610481565b005b34801561023957600080fd5b506102f36004803603602081101561025057600080fd5b810190808035906020019064010000000081111561026d57600080fd5b82018360208201111561027f57600080fd5b803590602001918460018302840111640100000000831117156102a157600080fd5b91908080601f016020809104026020016040519081016040528093929190818152602001838380828437600081840152601f19601f8201169050808301925050505050505091929192905050506107ae565b005b60008054600181600116156101000203166002900480601f01602080910402602001604051908101604052809291908181526020018280546001816001161561010002031660029004801561038b5780601f106103605761010080835404028352916020019161038b565b820191906000526020600020905b81548152906001019060200180831161036e57829003601f168201915b505050505081565b6002602052806000526040600020600091509050806000015490806001018054600181600116156101000203166002900480601f0160208091040260200160405190810160405280929190818152602001828054600181600116156101000203166002900480156104455780601f1061041a57610100808354040283529160200191610445565b820191906000526020600020905b81548152906001019060200180831161042857829003601f168201915b5050505050908060020154908060030160009054906101000a900473ffffffffffffffffffffffffffffffffffffffff16905084565b60015481565b60008111801561049357506001548111155b61049c57600080fd5b6104a461097e565b6002600083815260200190815260200160002060405180608001604052908160008201548152602001600182018054600181600116156101000203166002900480601f0160208091040260200160405190810160405280929190818152602001828054600181600116156101000203166002900480156105655780601f1061053a57610100808354040283529160200191610565565b820191906000526020600020905b81548152906001019060200180831161054857829003601f168201915b50505050508152602001600282015481526020016003820160009054906101000a900473ffffffffffffffffffffffffffffffffffffffff1673ffffffffffffffffffffffffffffffffffffffff1673ffffffffffffffffffffffffffffffffffffffff168152505090506000816060015190508073ffffffffffffffffffffffffffffffffffffffff166108fc349081150290604051600060405180830381858888f1935050505015801561061f573d6000803e3d6000fd5b5034826040015101826040018181525050816002600085815260200190815260200160002060008201518160000155602082015181600101908051906020019061066a9291906109bc565b506040820151816002015560608201518160030160006101000a81548173ffffffffffffffffffffffffffffffffffffffff021916908373ffffffffffffffffffffffffffffffffffffffff1602179055509050507f20988fe475351e75813672abada1dddb7ac67cbbeb81e61e1160b8329d8cdf1c600154836020015184604001518460405180858152602001806020018481526020018373ffffffffffffffffffffffffffffffffffffffff1673ffffffffffffffffffffffffffffffffffffffff168152602001828103825285818151815260200191508051906020019080838360005b8381101561076c578082015181840152602081019050610751565b50505050905090810190601f1680156107995780820380516001836020036101000a031916815260200191505b509550505050505060405180910390a1505050565b60008151116107bc57600080fd5b60016000815480929190600101919050555060405180608001604052806001548152602001828152602001600081526020013373ffffffffffffffffffffffffffffffffffffffff168152506002600060015481526020019081526020016000206000820151816000015560208201518160010190805190602001906108439291906109bc565b506040820151816002015560608201518160030160006101000a81548173ffffffffffffffffffffffffffffffffffffffff021916908373ffffffffffffffffffffffffffffffffffffffff1602179055509050507fc66336337a24e513f909b3b25119854dba8385d51307dbc7d31d1b2805e19c7e6001548260003360405180858152602001806020018481526020018373ffffffffffffffffffffffffffffffffffffffff1673ffffffffffffffffffffffffffffffffffffffff168152602001828103825285818151815260200191508051906020019080838360005b8381101561093e578082015181840152602081019050610923565b50505050905090810190601f16801561096b5780820380516001836020036101000a031916815260200191505b509550505050505060405180910390a150565b6040518060800160405280600081526020016060815260200160008152602001600073ffffffffffffffffffffffffffffffffffffffff1681525090565b828054600181600116156101000203166002900490600052602060002090601f016020900481019282601f106109fd57805160ff1916838001178555610a2b565b82800160010185558215610a2b579182015b82811115610a2a578251825591602001919060010190610a0f565b5b509050610a389190610a3c565b5090565b610a5e91905b80821115610a5a576000816000905550600101610a42565b5090565b9056fea265627a7a723158203cf02a803b0fc9db4eec0e321f73d317a2b4a5a741a2be0d6e47f085a1b3df9f64736f6c634300050c0032",
  "source": "pragma solidity ^0.5.0;\r\n\r\ncontract SocialNetwork{\r\n    string public name;\r\n    uint public postCount=0;\r\n     mapping(uint => Post) public posts;\r\n\r\n    struct Post {\r\n        uint id;\r\n        string content;\r\n        uint tipAmount;\r\n        address payable author;\r\n    }\r\n\r\n    event PostCreated(\r\n        uint id,\r\n        string content,\r\n        uint tipAmount,\r\n        address payable author\r\n    );\r\n\r\n    event PostTipped(\r\n        uint id,\r\n        string content,\r\n        uint tipAmount,\r\n        address payable author\r\n    );\r\n\r\n    constructor() public{\r\n        name = \"Space Exploration is BEST\";\r\n    }\r\n\r\n    function createPost(string memory _content) public {\r\n      //require valid content\r\n       require(bytes(_content).length > 0); \r\n      //increment the post count\r\n       postCount++;\r\n       //create the post\r\n       posts[postCount] = Post(postCount, _content, 0, msg.sender);\r\n       //triggering event\r\n       emit PostCreated(postCount, _content, 0, msg.sender);\r\n    }\r\n\r\n    function tipPost(uint _id) public payable {\r\n        //make sure that the id is valid\r\n        require(_id >0 && _id <=postCount);\r\n        //fetch the post\r\n        Post memory _post = posts[_id];\r\n        //fetch the author\r\n        address payable _author = _post.author;\r\n        //pay the author\r\n        address(_author).transfer(msg.value);\r\n        //increment the amount\r\n        _post.tipAmount = _post.tipAmount + msg.value;\r\n        //update the post\r\n        posts[_id] = _post;\r\n        //trigger and event\r\n        emit PostTipped(postCount, _post.content, _post.tipAmount, _author);\r\n\r\n    }\r\n\r\n}",
  "sourcePath": "C:/Users/Dell/Desktop/social-network/starter_kit-master/src/contracts/SocialNetwork.sol",
  "compiler": {
    "name": "solc",
    "version": "0.5.12+commit.7709ece9.Emscripten.clang"
  },
  "schemaVersion": "3.0.19",
  "updatedAt": "2019-11-29T17:02:44.230Z",
  "networkType": "ethereum",
  "devdoc": {
    "methods": {}
  },
  "userdoc": {
    "methods": {}
  }
}